:100000000C94E2000C943B0D0C94FF000C94FF0048
:100010000C94A5030C94FF000C94FF000C94FF00BB
:100020000C94FF000C94FF000C94FF000C94FF0054
:100030000C94FF000C94FF000C94FF000C94FF0044
:100040000C94FF000C94FF000C94A3040C94FF008C
:100050000C94FF000C94FF000C94FF000C94FF0024
:100060000C94FF000C94FF0008000000BE9224498D
:10007000123EABAAAA2ABECDCCCC4C3E00000080DA
:10008000BEABAAAAAA3E00000000BF000000803F4D
:100090000000000000084178D3BB4387D1133D190D
:1000A0000E3CC3BD4282AD2B3E68EC8276BED98F3A
:1000B000E1A93E4C80EFFFBE01C4FF7F3F0000007E
:1000C00000006E616E00696E660000407A10F35A9F
:1000D00000A0724E18090010A5D4E80000E8764888
:1000E000170000E40B54020000CA9A3B000000E134
:1000F000F505000080969800000040420F000000C7
:10010000A08601000000102700000000E8030000A6
:1001100000006400000000000A0000000000010070
:10012000000000002C76D888DC674F0823DFC1DF91
:10013000AE59E1B1B796E5E3E453C63AE651997694
:1001400096E8E6C28426EB898C9B62ED407C6FFCCE
:10015000EFBC9C9F40F2BAA56FA5F490055A2AF710
:100160005C936B6CF9676DC11BFCE0E40D47FEF519
:1001700020E6B500D0ED902E030094357705008081
:10018000841E080000204E0A000000C80C333333E0
:10019000330F986E12831141EF8D2114893BE65580
:1001A00016CFFEE6DB18D1844B381BF77C1D901D63
:1001B000A4BBE424203284725E228100C9F124ECC5
:1001C000A1E53D2711241FBECFEFD8E0DEBFCDBF94
:1001D00011E0A0E0B1E0E4EFFBE202C005900D9277
:1001E000AE37B107D9F721E0AEE7B1E001C01D920B
:1001F000A13AB207E1F70E9418060C94F8150C9486
:1002000000002A9A00C02A980895CF93C82F662329
:1002100011F0289A01C028982998249A259A269A9C
:10022000279A2F982E982D982C98CC230CF42F9A3F
:10023000C6FD2E9AC5FD2D9AC4FD2C9A0E9401017F
:100240002F982E982D982C98C3FD2F9AC2FD2E9A88
:10025000C1FD2D9AC0FD2C9A0E9401012C9A2D9A65
:100260002E9A2F9ACF910895882311F0289A01C0D1
:100270002898299A24982598269827982A9A00C081
:100280001C9B02C080E101C080E01D9980621E9924
:1002900080641F9980682A9800C02A9A00C01C991F
:1002A00081601D9982601E9984601F9988602A98D8
:1002B000089580E00E9434018823DCF388E090E018
:1002C0000197F1F780E00E9434010895CF93C82F81
:1002D0000E94590160E08C2F0E940501CF91089582
:1002E000CF93C82F0E94590161E08C2F0E94050115
:1002F000CF910895611104C080580E94660108954D
:10030000613021F480540E9466010895623021F426
:100310008C560E94660108958C520E9466010895D1
:1003200081E00E9466010895CF93C82F0E94590171
:10033000CA30A1F4843148F090EC980F943138F031
:1003400084518C3230F080E005C080E403C084E149
:1003500001C084E580580E94660104C061E08C2FD2
:100360000E940501CF910895CF93DF93EC01219670
:10037000FC018081882329F00E94940189918111D8
:10038000FBCFDF91CF9108951F93CF93DF93182F69
:10039000209A219A229A249A259A269A279A80E0CE
:1003A0009AEF0197F1F72D9A2C9A0E94010180E0B3
:1003B0009EE40197F1F70E940101C0E0D1E0CE0177
:1003C0000197F1F70E940101CE010197F1F72C98F6
:1003D0000E9401012197F1F788E20E94660188E0FE
:1003E0000E9466010E94900186E00E946601812FB2
:1003F0000E946601DF91CF911F9108951092B9007C
:100400008CE08093B800089594EA9093BC00ECEBE4
:10041000F0E090819923ECF79091B900987F9830A3
:1004200011F09031A1F48093BB0084E88093BC006C
:10043000ECEBF0E080818823ECF79091B900987F95
:10044000983139F081E0903429F480E0089581E01A
:10045000089580E00895CF93DF93ECEBF0E024EA79
:10046000A9EBB0E0CBEBD0E034E844E92083908105
:100470009923ECF79C91987F983011F09031B1F767
:100480008883308390819923ECF79C91987F9032F8
:1004900011F0983529F44083908194FDFDCFE6CF8B
:1004A000DF91CF9108950E940402089584E980931A
:1004B000BC00ECEBF0E0808184FDFDCF08958093DB
:1004C000BB0084E88093BC00ECEBF0E080818823E3
:1004D000ECF79091B900987F81E0983209F480E0C0
:1004E000089584EC8093BC00ECEBF0E080818823DD
:1004F000ECF78091BB00089584E88093BC00ECEB9E
:10050000F0E080818823ECF78091BB00089580E4BF
:100510000E9466018FE10E94700181E10E947001DA
:1005200081E10E94700181E10E94700181E10E94DD
:10053000700181E10E94700181E10E9470018FE1F0
:100540000E94700188E40E9466018FE10E947001A0
:1005500081E10E94700181E10E94700181E10E94AD
:10056000700181E10E9470018BE10E9470018FE1B6
:100570000E9470018FE10E94700180E50E94660177
:100580008FE10E94700181E10E94700181E10E946F
:10059000700181E10E9470018BE10E9470018FE186
:1005A0000E9470018FE10E9470018FE10E94700132
:1005B00088E50E9466018FE10E94700181E10E943E
:1005C00070018BE10E9470018FE10E9470018BE14C
:1005D0000E9470018FE10E9470018FE10E94700102
:1005E0008FE10E94700180E60E94660180E00E9417
:1005F00070018EE00E94700181E10E94700180E034
:100600000E9470018FE10E9470018EE00E947001D3
:1006100084E00E94700184E00E94700188E60E94DC
:1006200066018BE10E9470018BE10E9470018BE1F9
:100630000E9470018BE10E9470018BE10E947001A9
:100640008BE10E9470018BE10E9470018BE10E949E
:1006500070010895CF93DF93EC010E94870260E060
:100660008FE00E947A01209721F480E00E9494019B
:100670001AC0C130D10521F481E00E94940113C059
:10068000C230D10521F482E00E9494010CC0C33035
:10069000D10521F483E00E94940105C0249719F448
:1006A0008FEF0E949401DF91CF91089581309105E1
:1006B00089F40E94900160E080E00E947A0186E067
:1006C00091E00E94B40181E090E090930101809359
:1006D000000108958230910589F40E94900160E044
:1006E00080E00E947A0182E191E00E94B40182E000
:1006F00090E090930101809300010895833091056B
:1007000089F40E94900160E080E00E947A018DE10E
:1007100091E00E94B40183E090E090930101809306
:1007200000010895049781F40E94900160E080E048
:100730000E947A018DE291E00E94B40184E090E091
:10074000909301018093000108951F920F920FB6BC
:100750000F9211242F933F934F935F936F937F9347
:100760008F939F93AF93BF93EF93FF93309930C0D4
:1007700080917E0190917F01892B09F0A5C083E2D1
:1007800094EF0197F1F700C000008091040190916F
:10079000050101971816190674F027B530E0215CA1
:1007A0003F4F2C3F31053CF010920501109204019F
:1007B0008FEF87BD07C0909305018093040187B533
:1007C000815C87BD80910401909105010E942A03FC
:1007D000319931C080917E0190917F01892B09F080
:1007E00071C083E294EF0197F1F700C0000080919F
:1007F0000401909105010196843091057CF027B5A4
:1008000030E02F5331092430310544F484E090E086
:10081000909305018093040117BC07C090930501D4
:100820008093040187B58F5387BD80910401909117
:1008300005010E942A0332992BC080917E0190917C
:100840007F01892B29F583E294EF0197F1F700C02E
:10085000000080910201909103010196853091057D
:100860002CF4909303018093020106C081E090E094
:100870009093030180930201809102019091030102
:100880000E94560380910401909105010E942A0361
:1008900033991DC083E294EF0197F1F700C0000087
:1008A00080917E0190917F01892B39F481E090E065
:1008B00090937F0180937E010AC010927F01109275
:1008C0007E0105C086B1E4CF319BFCCFB4CFFF9150
:1008D000EF91BF91AF919F918F917F916F915F91B8
:1008E0004F913F912F910F900FBE0F901F90189531
:1008F0001092C5008093C400E1ECF0E088E08083B2
:10090000808180698083E0ECF0E080818260808378
:100910008EE08093C2000895E0ECF0E0908195FFB6
:10092000FDCF8093C60008958AE00E948C048DE07C
:100930000E948C040895E0ECF0E080818823ECF7BD
:100940008091C60008951F920F920FB60F92112446
:100950002F933F934F935F936F937F938F939F93C7
:10096000AF93BF93CF93EF93FF930E949B0488377D
:1009700089F58091940190919501A0919601B09193
:1009800097018093880190938901A0938A01B09385
:100990008B018093840190938501A0938601B0938D
:1009A000870180919D0190919E01A0919F01B0913E
:1009B000A0018093900190939101A0939201B09334
:1009C000930180938C0190938D01A0938E01B0933D
:1009D0008F01B7C0823529F483E090E00E9456036E
:1009E000B0C0833429F484E090E00E945603A9C08B
:1009F000813429F482E090E00E945603A2C084343E
:100A000029F481E090E00E9456039BC08B32A1F450
:100A100084E190E00E94DE158F5F893C18F480939A
:100A20009C0103C088EC80939C0160919C0184E14F
:100A300090E00E94E61585C08D32A1F484E190E03B
:100A40000E94DE158150893C18F480939C0103C0FC
:100A500084E180939C0160919C0184E190E00E947C
:100A6000E6156FC0813359F480E090E00E942A03BC
:100A700010920501109204018FEF87BD62C082338E
:100A800069F481E090E00E942A0381E090E0909375
:100A90000501809304018DEB87BD53C0833369F456
:100AA00082E090E00E942A0382E090E090930501AA
:100AB000809304018EE787BD44C0843369F483E0EA
:100AC00090E00E942A0383E090E0909305018093D8
:100AD00004018FE387BD35C0853361F484E090E085
:100AE0000E942A0384E090E0909305018093040122
:100AF00017BC27C0883439F481E090E090937F01DF
:100B000080937E011EC08E3429F410927F011092D2
:100B10007E0117C08D36A9F463E080E00E947A015F
:100B2000C0E003C00E949401CF5F0E949B048A3002
:100B3000C9F7C03130F480E20E949401CF5FC03128
:100B4000D1F7FF91EF91CF91BF91AF919F918F918D
:100B50007F916F915F914F913F912F910F900FBEB9
:100B60000F901F9018951F93CF93DF93162FEA01D4
:100B7000880F0E942B02812F0E945F028D2F0E94FE
:100B80005F0281E0CD2B09F480E00E945F020E94A9
:100B90005602DF91CF911F910895CF93DF93D62F07
:100BA000C82FCC0F8C2F0E942B028D2F0E945F022A
:100BB0000E94560281E08C0F0E9453020E94710233
:100BC000D82F0E947C02C82F0E9456028C2F90E0E2
:100BD0009D2BDF91CF910895CF93C82FAB0161E09A
:100BE0000E94B3058FEC97E00197F1F700C0000079
:100BF00060E08C2F0E94CD05CF910895CF93C82F30
:100C0000AB0161E00E94B30560E08C2F0E94CD052E
:100C1000CF9108958AB1837F8AB98AB1806F8AB9EA
:100C20008CE08BB982E08093690081E08DBB0895F0
:100C3000CF93DF93CDB7DEB7E8970FB6F894DEBF5A
:100C40000FBECDBF0E9487022FE986E891E02150B8
:100C500080409040E1F700C000008CE00E94C40199
:100C600080E48AB9579887B1897F87B91FE018B99E
:100C70000E94900182E08093680010936C0017BC82
:100C800081E090E00E94560380910401909105015B
:100C90000E942A0383EC84BD81E085BD8CE00E9424
:100CA00078040E94FE010E940A0684E190E00E94FE
:100CB000DE1580939C01893C28F064E184E190E09A
:100CC0000E94E61578945E01A1E2AA0EB11C1E01F5
:100CD000B9E22B0E311C0F2EF8E66F2EF1E07F2EBD
:100CE000F02DFE0131962F014E01F1E18F0E911C86
:100CF00080917E0190917F010197B1F460E083E1E2
:100D00000E947A0185E00E94940188E40E948C048C
:100D10000E9494042FE788E391E0215080409040A6
:100D2000E1F700C00000E4CF60E083E10E947A01B7
:100D300080E20E94940160E082E10E947A0180E2F8
:100D40000E9494014F9B07C060E082E10E947A01FB
:100D500084E00E9494018091000190910101813012
:100D6000910509F0B3C085B78F7E85BF63EE74EB44
:100D700088E40E94FE05BC01990F880B990B0E9424
:100D8000840E21E634E749E053E40E949F0D22E6F9
:100D90003DEE42E954E40E94100E6B017C01609329
:100DA0009D0170939E0180939F019093A0012091DB
:100DB00090013091910140919201509193010E94D4
:100DC000340F181644F4C0929001D0929101E09231
:100DD0009201F092930120918C0130918D0140910C
:100DE0008E0150918F01C701B6010E940B0E88231E
:100DF0000CF083C5C0928C01D0928D01E0928E01DF
:100E0000F0928F017AC5D8018D918D010E948C04DA
:100E100002151305C1F7ACC5F80181918F010E943D
:100E20008C040A151B05C1F7AAC5D8018D918D0147
:100E30000E948C0408151905C1F78AE30E948C04EE
:100E4000E4E0F1E08081805D0E948C0462E080E05B
:100E50000E947A018DE391E00E94B401C4010E94D6
:100E6000B40162E08BE00E947A0182E491E00E948A
:100E7000B401C2010E94B40161E080E00E947A01E5
:100E8000C5010E94B40161E089E00E947A0187E413
:100E900091E00E94B401D501E8E01D92EA95E9F7DE
:100EA000D401E0E11D92EA95E9F7D201E0E11D925B
:100EB000EA95E9F70E949404FFE728E381E0F15006
:100EC00020408040E1F700C0000012CF8230910541
:100ED00009F0D7C085B78F7E85BF04E610E0C12C2E
:100EE000D12CE12CF12C63EE74EB88E40E94FE051A
:100EF000BC01990F880B990B0E94840E21E634E700
:100F000049E053E40E949F0D22E63DEE42E954E49D
:100F10000E94100E60939D0170939E0180939F012B
:100F20009093A0019B01AC010E94910F9B01AC0129
:100F30006C2D7D2D8E2D9F2D0E949F0DC62ED72EA0
:100F4000E82EF92E0150110971F620E030E048EC4E
:100F500052E46C2D7D2D8E2D9F2D0E94100E0E942F
:100F600004106B017C016093940170939501809350
:100F700096019093970120918801309189014091C9
:100F80008A0150918B010E94340F181644F4C092CC
:100F90008801D0928901E0928A01F0928B01209120
:100FA0008401309185014091860150918701C701EC
:100FB000B6010E940B0E88230CF0E8C4C092840195
:100FC000D0928501E0928601F0928701DFC4D801BA
:100FD0008D918D010E948C0420163106C1F711C538
:100FE000F80181918F010E948C040A151B05C1F73D
:100FF0000FC5D8018D918D010E948C04081519052B
:10100000C1F78AE30E948C04E4E0F1E08081805D16
:101010000E948C040E94940461E080E00E947A01A6
:10102000C5010E94B40161E086E00E947A0189E472
:1010300091E00E94B40162E080E00E947A018DE3B9
:1010400091E00E94B401C4010E94B40162E08BE00F
:101050000E947A0182E491E00E94B401C2010E94E0
:10106000B401D501E8E01D92EA95E9F7D401E0E189
:101070001D92EA95E9F7D201E0E11D92EA95E9F7C0
:1010800037CE9C01235031092230310508F030CE93
:101090008330910539F482E50E948C048AE30E9432
:1010A0008C0408C00497A1F483E40E948C048AE3B2
:1010B0000E948C048091000190910101039741F4FA
:1010C00062E080E00E947A018EE491E00E94B40127
:1010D000539A5B9A549885B7806185BF05E010E00C
:1010E00063EE72EC88E40E94EC0501501109C1F72F
:1010F000BC01990F880B990B0E94840E2DEC3CECDF
:1011000042EC52E40E949F0D2EEE36EC4DEF55E47A
:101110000E94100E6B017C016093980170939901FD
:1011200080939A0190939B0127E538E747E15EE3BE
:101130000E94340F18160CF0D7C180918001909155
:101140008101A0918201B091830189AB9AABABABD5
:10115000BCAB20E03CED43EC57ECC701B6010E946C
:10116000910F6DAB7EAB8FAB98AF22E538EB4EE4C1
:1011700050E4C701B6010E949E0D9B01AC016DA910
:101180007EA98FA998AD0E94100E29A93AA94BA952
:101190005CA90E949E0D6B017C0160939801709385
:1011A000990180939A0190939B0120E034E244EFEF
:1011B00059E40E94340F18163CF520E031ED4CE65E
:1011C00059E4C701B6010E94340F1816ECF480E010
:1011D00094E2A4E7B9E48093980190939901A093D5
:1011E0009A01B0939B0180910001909101010497B5
:1011F00089F010E004E20F2EF4E7FF2EF02D0F2E01
:10120000F9E4EF2EF02D33C180910001909101019E
:10121000049781F462E080E00E947A0187E591E022
:101220000E94B40162E080E00E947A0183E691E0CE
:101230000E94B4011091980100919901F0909A01D7
:10124000E0909B01612F702F8F2D9E2D0E94390FF2
:1012500069AB7AAB8BAB9CAB20E030E040EC50E468
:101260000E940B0E88230CF046C020E030E040EADC
:1012700050E469A97AA98BA99CA90E94340F181679
:10128000D4F5EF92FF920F931F937F926F92BF92CC
:10129000AF920E945E1589A10E948C048AA10E94CF
:1012A0008C048BA10E948C048BE60E948C0461E06C
:1012B00080E00E947A0188E591E00E94B40161E03B
:1012C00080E00E947A0189A10E9494018AA10E9473
:1012D00094018BA10E9494018BE60E94940184EFFB
:1012E0000E9494018BE60E948C040FB6F894DEBF36
:1012F0000FBECDBFADC220E030E040E850E469A9A8
:101300007AA98BA99CA90E940B0E88230CF04CC0D3
:1013100020E030E040E450E469A97AA98BA99CA9B7
:101320000E94340F18160CF03FC0EF92FF920F93FB
:101330001F93EDE6F1E0FF93EF93BF92AF920E940F
:101340005E1589A10E948C048AA10E948C048BA145
:101350000E948C048CA10E948C048BE60E948C0459
:1013600061E080E00E947A0188E591E00E94B4018A
:1013700061E080E00E947A0189A10E9494018AA123
:101380000E9494018BA10E9494018CA10E9494015F
:101390008BE60E94940184EF0E9494010FB6F894AA
:1013A000DEBF0FBECDBF54C220E030E040EA50E4C3
:1013B00069A97AA98BA99CA90E940B0E88230CF01D
:1013C00049C020E030E040E850E469A97AA98BA93F
:1013D0009CA90E94340F1816ECF5EF92FF920F9320
:1013E0001F937F926F92BF92AF920E945E1589A168
:1013F0000E948C048AA10E948C048EE20E948C04BC
:101400008BA10E948C048BE60E948C0461E080E03A
:101410000E947A0188E591E00E94B40161E080E0D9
:101420000E947A0189A10E9494018AA10E949401DC
:101430008EE20E9494018BA10E9494018BE60E948F
:10144000940184EF0E9494010FB6F894DEBF0FBEA2
:10145000CDBFFEC120E030E040EC50E469A97AA99C
:101460008BA99CA90E94340F88230CF4F1C1EF9240
:10147000FF920F931F937F926F92BF92AF920E9441
:101480005E1589A10E948C048EE20E948C048AA1C0
:101490000E948C048BA10E948C048DE40E948C0419
:1014A00061E080E00E947A0188E591E00E94B40149
:1014B00061E080E00E947A0189A10E9494018EE29D
:1014C0000E9494018AA10E9494018BA10E94940120
:1014D0008DE40E94940184EF0E9494010FB6F89469
:1014E000DEBF0FBECDBFB4C105E010E063EE7AEC05
:1014F00088E40E94EC0501501109C1F7813591057E
:101500000CF0C3C05398549A5C9A85B7806185BF2C
:1015100005E010E063EE7AEC88E40E94EC050150EF
:101520001109C1F7BC01990F880B990B0E94840E19
:101530002CE537EB4CE752E40E949E0D29E638E893
:101540004AEF57E40E94100E69AB7AAB8BAB9CABB1
:10155000C0908001D0908101E0908201F0908301E1
:1015600020E030E049E754EC0E94910F6DAB7EAB78
:101570008FAB98AF20E030E040E550E469A97AA94C
:101580008BA99CA90E949E0D9B01AC016DA97EA90F
:101590008FA998AD0E94100EA70196010E949E0D82
:1015A000162F072FF82EE92E862F902FAF2DBE2D48
:1015B0008093980190939901A0939A01B0939B0115
:1015C00060919C0170E080E090E00E94820E20E03B
:1015D00030E040E251E40E94100E9B01AC01612F0B
:1015E000702F8F2D9E2D0E940B0E8823C4F48091A6
:1015F000000190910101049709F011C262E080E0BE
:101600000E947A0187E591E00E94B40162E080E0E7
:101610000E947A0182E791E00E94B40112C2809197
:10162000000190910101049709F00BC262E080E093
:101630000E947A0187E591E00E94B40162E080E0B7
:101640000E947A0183E691E00E94B401FAC18E0102
:101650000F5D1F4FD8018D918D010E948C040215E2
:101660001305C1F761E080E00E947A0188E591E00E
:101670000E94B40161E080E00E947A01C5010E94ED
:10168000B40184EF0E949401E3C0BC01990F880B60
:10169000990B0E94840E23EE30E746E350E40E944B
:1016A0009F0D2BEB31E74AEF57E40E94100E69AB18
:1016B0007AAB8BAB9CABC0908001D0908101E09065
:1016C0008201F090830120E03CED43EC57EC0E9456
:1016D000910F6DAB7EAB8FAB98AF20E030E040E573
:1016E00050E469A97AA98BA99CA90E949E0D9B012F
:1016F000AC016DA97EA98FA998AD0E94100EA7011B
:1017000096010E949E0D162F072FF82EE92E862F88
:10171000902FAF2DBE2D8093980190939901A093A7
:101720009A01B0939B01612F702F8F2D9E2D0E94E7
:10173000390F20E030E040E450E40E94340F882369
:101740000CF43FC0EF92FF920F931F93EDE6F1E090
:10175000FF93EF93BF92AF920E945E1589A10E9402
:101760008C048AA10E948C048BA10E948C048CA101
:101770000E948C048BE60E948C0461E080E00E9451
:101780007A0188E591E00E94B40161E080E00E9466
:101790007A0189A10E9494018AA10E9494018BA1DF
:1017A0000E9494018CA10E9494018BE60E949401F6
:1017B00084EF0E9494010FB6F894DEBF0FBECDBF38
:1017C00030C0EF92FF920F931F937F926F92BF9260
:1017D000AF920E945E1589A10E948C048AA10E948A
:1017E0008C048BA10E948C0461E080E00E947A014D
:1017F00088E591E00E94B40161E080E00E947A01F6
:1018000089A10E9494018AA10E9494018BA10E9447
:10181000940184EF0E9494010FB6F894DEBF0FBECE
:10182000CDBF8091000190910101049709F049C05A
:1018300062E080E00E947A0183E591E00E94B401B9
:1018400062E080E00E947A0183E691E00E94B401A8
:101850008091000190910101049799F584E190E055
:101860000E94DE15682F70E080E090E00E94820EFA
:1018700020E030E040E251E40E94100E9F938F93ED
:101880007F936F93E8E7F1E0FF93EF933F922F92FE
:101890000E945E1562E088E00E947A018AE591E08C
:1018A0000E94B40162E088E00E947A01C1010E94B6
:1018B000B40184EF0E9494010FB6F894DEBF0FBE0E
:1018C000CDBF8AE30E948C04A4E0B1E08C91805DDE
:1018D0000E948C04F50128E011922A95E9F7D101C4
:1018E000E8E01D92EA95E9F70E9494048FE493ECF6
:1018F0000197F1F700C00000FBC9FF92EF92DF9261
:10190000CF927F926F92BF92AF920E945E158091AC
:101910008C0190918D01A0918E01B0918F01BF93A8
:10192000AF939F938F937F926F929F928F920E941B
:101930005E158091900190919101A0919201B091DA
:101940009301BF93AF939F938F937F926F925F9218
:101950004F920E945E1584E40E948C048AE30E94E8
:101960008C0485010FB6F894DEBF0FBECDBF4BCA05
:101970008AE30E948C048E010F5E1F4F4DCA8AE3DA
:101980000E948C048E010F5F1F4F4FCAFF92EF928F
:10199000DF92CF927F926F92BF92AF920E945E15BC
:1019A0008091880190918901A0918A01B0918B0169
:1019B000BF93AF939F938F937F926F925F924F925B
:1019C0000E945E158091840190918501A09186010D
:1019D000B0918701BF93AF939F938F937F926F9244
:1019E0009F928F920E945E1581E40E948C048AE38C
:1019F0000E948C0485010FB6F894DEBF0FBECDBFE8
:101A0000E6CA8AE30E948C048E010F5E1F4FE8CA6B
:101A10008AE30E948C048E010F5F1F4FEACAEF9287
:101A2000FF920F931F938DE691E09F938F93BF9248
:101A3000AF920E945E150FB6F894DEBF0FBECDBF09
:101A400006CE80919B018F9380919A018F93809114
:101A500099018F93809198018F938DE691E09F93E8
:101A60008F93BF92AF920E945E150FB6F894DEBFBF
:101A70000FBECDBFECCD1F920F920FB60F92112467
:101A80002F933F938F939F93AF93BF9380910001C8
:101A9000909101019C01215031092230310588F5D6
:101AA0008091940190919501A0919601B091970138
:101AB0008093880190938901A0938A01B0938B0150
:101AC0008093840190938501A0938601B093870150
:101AD00080919D0190919E01A0919F01B091A001E4
:101AE0008093900190939101A0939201B093930100
:101AF00080938C0190938D01A0938E01B0938F0100
:101B000012C0039781F48091980190919901A0915E
:101B10009A01B0919B018093800190938101A093E1
:101B20008201B0938301BF91AF919F918F913F91BB
:101B30002F910F900FBE0F901F9018955058BB27F4
:101B4000AA270E94B60D0C94FA0E0E94EC0E38F0F3
:101B50000E94F30E20F039F49F3F19F426F40C9400
:101B6000E90E0EF4E095E7FB0C94E30EE92F0E94DA
:101B70000B0F58F3BA17620773078407950720F015
:101B800079F4A6F50C942D0F0EF4E0950B2EBA2FD8
:101B9000A02D0B01B90190010C01CA01A001112473
:101BA000FF27591B99F0593F50F4503E68F11A161F
:101BB000F040A22F232F342F4427585FF3CF4695B0
:101BC00037952795A795F0405395C9F77EF41F16D2
:101BD000BA0B620B730B840BBAF09150A1F0FF0F9C
:101BE000BB1F661F771F881FC2F70EC0BA0F621F88
:101BF000731F841F48F4879577956795B795F79578
:101C00009E3F08F0B0CF9395880F08F09927EE0F0C
:101C10009795879508950E94BF0E08F481E0089576
:101C20000E94240E0C94FA0E0E94F30E58F00E94AB
:101C3000EC0E40F029F45F3F29F00C94E30E5111B3
:101C40000C942E0F0C94E90E0E940B0F68F399234D
:101C5000B1F3552391F3951B550BBB27AA276217A8
:101C60007307840738F09F5F5F4F220F331F441FB5
:101C7000AA1FA9F335D00E2E3AF0E0E832D09150E9
:101C80005040E695001CCAF72BD0FE2F29D0660FD6
:101C9000771F881FBB1F261737074807AB07B0E819
:101CA00009F0BB0B802DBF01FF2793585F4F3AF01F
:101CB0009E3F510578F00C94E30E0C942E0F5F3F7D
:101CC000E4F3983ED4F3869577956795B795F795A5
:101CD0009F5FC9F7880F911D9695879597F908958D
:101CE000E1E0660F771F881FBB1F62177307840729
:101CF000BA0720F0621B730B840BBA0BEE1F88F738
:101D0000E0950895E89409C097FB3EF4909580957E
:101D1000709561957F4F8F4F9F4F9923A9F0F92FB1
:101D200096E9BB279395F695879577956795B7952F
:101D3000F111F8CFFAF4BB0F11F460FF1BC06F5F15
:101D40007F4F8F4F9F4F16C0882311F096E911C027
:101D5000772321F09EE8872F762F05C0662371F048
:101D600096E8862F70E060E02AF09A95660F771F5C
:101D7000881FDAF7880F9695879597F90895990F38
:101D80000008550FAA0BE0E8FEEF16161706E80745
:101D9000F907C0F012161306E407F50798F0621B66
:101DA000730B840B950B39F40A2661F0232B242B3B
:101DB000252B21F408950A2609F4A140A6958FEF5A
:101DC000811D811D089597F99F6780E870E060E0AC
:101DD00008959FEF80EC089500240A9416161706C4
:101DE00018060906089500240A941216130614060C
:101DF00005060895092E0394000C11F4882352F06F
:101E0000BB0F40F4BF2B11F460FF04C06F5F7F4F26
:101E10008F4F9F4F089557FD9058440F551F59F00D
:101E20005F3F71F04795880F97FB991F61F09F3FC7
:101E300079F087950895121613061406551FF2CFF0
:101E40004695F1DF08C0161617061806991FF1CF40
:101E500086957105610508940895E894BB27662767
:101E60007727CB0197F908950E94BF0E08F48FEFF2
:101E700008950E94490F29ED3BE54EED5EE30C9479
:101E8000910F16F00C9444100C94E90E68940C9485
:101E9000E30E0E94130FA8F39923C1F3AEF3DF936F
:101EA000CF931F930F93FF92C92FDD2788232AF02A
:101EB0002197660F771F881FDAF720E030E040E8AF
:101EC0005FEB9FE3883920F0803E38F021968F77D2
:101ED0000E949F0DE8E6F0E004C00E949F0DE5E936
:101EE000F0E00E9459108B01BE01EC01FB2E6F57F0
:101EF00071097595771F880B990B0E94840E28E154
:101F000032E741E35FE30E94A40FAF2D9801AE01D9
:101F1000FF900F911F91CF91DF910E94B60D0C940D
:101F2000FA0E0E94A40F0C94FA0E0E94EC0E38F0E8
:101F30000E94F30E20F0952311F00C94E30E0C9404
:101F4000E90E11240C942E0F0E940B0F70F3959F35
:101F5000C1F3950F50E0551F629FF001729FBB27A0
:101F6000F00DB11D639FAA27F00DB11DAA1F649F3C
:101F70006627B00DA11D661F829F2227B00DA11DEF
:101F8000621F739FB00DA11D621F839FA00D611D75
:101F9000221F749F3327A00D611D231F849F600D96
:101FA000211D822F762F6A2F11249F5750409AF0BF
:101FB000F1F088234AF0EE0FFF1FBB1F661F771F4B
:101FC000881F91505040A9F79E3F510580F00C9416
:101FD000E30E0C942E0F5F3FE4F3983ED4F3869506
:101FE00077956795B795F795E7959F5FC1F7FE2BB6
:101FF000880F911D9695879597F9089519F416F411
:102000000C94E90E0C9444100E94130FB8F399231A
:10201000C9F3B6F39F57550B87FF0E945210002457
:10202000A0E640EA900180585695979528F4805C88
:10203000660F771F881F20F026173707480730F4F0
:10204000621B730B840B202931294A2BA695179408
:102050000794202531254A2758F7660F771F881FD8
:1020600020F026173707480730F4620B730B840BF8
:10207000200D311D411DA09581F7B901842F915884
:10208000880F9695879508959F3F31F0915020F4E1
:10209000879577956795B795880F911D9695879544
:1020A00097F9089591505040660F771F881FD2F717
:1020B0000895DF93CF931F930F93FF92EF92DF92D8
:1020C0007B018C01689406C0DA2EEF010E94A40FF8
:1020D000FE01E894A5912591359145915591A6F37E
:1020E000EF010E94B60DFE019701A801DA9469F78D
:1020F000DF90EF90FF900F911F91CF91DF910895A6
:10210000A0E1B0E0E6E8F0E10C94FD137C011B01D6
:102110006A01FC0117821682838181FF44C39E01FC
:102120002F5F3F4F3901F7019381F10193FD8591B5
:1021300093FF81911F01882309F431C3853239F45B
:1021400093FD859193FF81911F01853239F4B70189
:1021500090E00E94221556016501E5CF10E0512C58
:10216000912CFFE1F915D8F08B3279F038F48032F8
:1021700079F08332A1F4F92DF0612EC08D3261F037
:10218000803369F4292D21602DC0392D3260932EC2
:10219000892D8460982E2AC0E92DE86015C097FC2F
:1021A0002DC020ED280F2A3088F496FE06C03AE0B4
:1021B000139F200D1124122F19C08AE0589E200D64
:1021C0001124522EE92DE0629E2E10C08E3231F481
:1021D00096FCE5C2F92DF0649F2E08C08C3621F4E0
:1021E000292D2068922E02C0883641F4F10193FD1A
:1021F000859193FF81911F018111B3CF9BEB980FC4
:10220000933020F4992D9061805E07C09BE9980F70
:10221000933008F066C1992D9F7E96FF16E09F735C
:10222000992E853619F49064992E08C0863621F4CB
:10223000392F3068932E02C01111115097FE07C03C
:102240001C3350F444244394410E27E00BC0183053
:1022500038F027E017E005C027E09CE3492E02C0D4
:10226000212F412C560184E0A80EB11CF60160819B
:10227000718182819381042DA3010E9434146C0129
:10228000F981FC87F0FF02C0F3FF06C091FC06C095
:1022900092FE06C000E205C00DE203C00BE201C0E1
:1022A00000E08C858C7019F001115AC29BC297FE18
:1022B00010C04C0CFC85F4FF04C08A81813309F402
:1022C0004A94141474F528E0241578F588E0482E13
:1022D0002CC096FC2AC0812F90E08C159D059CF0A7
:1022E0003CEFC3163FEFD30674F0892D8068982E1B
:1022F0000AC0E2E0F0E0EC0FFD1FE10FF11D80816C
:10230000803319F411501111F4CF97FE0EC04424FC
:102310004394410E812F90E0C816D9062CF41C1965
:1023200004C04424439401C010E097FE06C01C146E
:102330001D0434F4C601019605C085E090E002C09A
:1023400081E090E001110196112331F0212F30E05E
:102350002F5F3F4F820F931F252D30E08217930789
:1023600014F4581A01C0512C892D897049F4552054
:1023700039F0B70180E290E00E9422155A94F7CF1D
:10238000002329F0B701802F90E00E94221593FCD2
:1023900009C0552039F0B70180E390E00E94221572
:1023A0005A94F7CF97FE4CC04601D7FE02C0812C4D
:1023B000912CC60188199909F301E80FF91FFE87CE
:1023C000ED87960124193109388B2F87012F10E0F2
:1023D0001195019511093FEF8316930629F4B70172
:1023E0008EE290E00E942215C814D9044CF08F852B
:1023F00098898815990524F4ED85FE85818101C0B1
:1024000080E3F1E08F1A91082D853E852F5F3F4FC5
:102410003E872D87801691062CF0B70190E00E9430
:102420002215D9CFC814D90441F49A81963320F4E7
:10243000953319F43C8534FF81E3B70190E04EC039
:102440008A81813319F09C859F7E9C87B70190E03B
:102450000E942215111105C094FC18C085E690E079
:1024600017C0B7018EE290E00E9422151E5F82E045
:1024700001E0080FF301E80FF11D8081B70190E042
:102480000E942215802F0113F3CFE6CF85E490E060
:10249000B7010E942215D7FC06C0C114D10441F433
:1024A000EC85E4FF05C0D194C194D1088DE201C050
:1024B0008BE2B70190E00E94221580E32AE0C21669
:1024C000D1042CF08F5FFAE0CF1AD108F7CFB70113
:1024D00090E00E942215B701C601C0960E94221505
:1024E00054C1833631F0833779F0833509F056C013
:1024F00020C0560132E0A30EB11CF6018081898311
:1025000001E010E0630112C05601F2E0AF0EB11C11
:10251000F601C080D18096FE03C0612F70E002C03A
:102520006FEF7FEFC6010E9417158C01F92DFF7721
:1025300014C0560122E0A20EB11CF601C080D18069
:1025400096FE03C0612F70E002C06FEF7FEFC601FF
:102550000E940C158C01F92DF0689F2EF3FD1AC016
:10256000852D90E008171907A8F4B70180E290E0E4
:102570000E9422155A94F4CFF60197FC859197FE9C
:1025800081916F01B70190E00E94221551105A9479
:10259000015011090115110579F7F7C0843611F0C2
:1025A000893661F5560197FE09C024E0A20EB11CE0
:1025B000F60160817181828193810AC0F2E0AF0EE1
:1025C000B11CF60160817181072E000C880B990BFC
:1025D000F92DFF769F2E97FF09C0909580957095F5
:1025E00061957F4F8F4F9F4FF0689F2E2AE030E01C
:1025F000A3010E948015C82EC6183FC0092D85373B
:1026000021F40F7E2AE030E01DC0097F8F3691F063
:1026100018F4883559F0C3C0803719F0883711F0A5
:10262000BEC0006104FF09C0046007C094FE08C07A
:10263000066006C028E030E005C020E130E002C0BE
:1026400020E132E0560107FF09C084E0A80EB11C6A
:10265000F601608171818281938108C0F2E0AF0E42
:10266000B11CF6016081718180E090E0A3010E94BD
:102670008015C82EC6180F77902E96FE0BC0092D18
:102680000E7FC11650F494FE0AC092FC08C0092DBA
:102690000E7E05C0DC2C092D03C0DC2C01C0D12E20
:1026A00004FF0DC0FE01EC0DF11D8081803311F49B
:1026B000097E09C002FF06C0D394D39404C0802FC2
:1026C000867809F0D39403FD11C000FF06C01C2DCD
:1026D000D51480F4150D1D190DC0D51458F4B7018B
:1026E00080E290E00E942215D394F7CFD51410F425
:1026F0005D1801C0512C04FF10C0B70180E390E0C9
:102700000E94221502FF17C001FD03C088E790E078
:1027100002C088E590E0B7010CC0802F867859F0A0
:1027200001FF02C08BE201C080E207FD8DE2B7012C
:1027300090E00E942215C11638F4B70180E390E0C2
:102740000E9422151150F7CFCA94F301EC0DF11D30
:102750008081B70190E00E942215C110F5CF15C00D
:10276000F4E0F51560F584E0581A93FE1FC00111DE
:1027700027C02C8523FF2AC002EC10E0392D3071D0
:10278000932EF8018491811124C0552009F4E4CCE2
:10279000B70180E290E00E9422155A94F6CFF7012B
:1027A0008681978126C08FEF9FEF23C0B70180E21B
:1027B00090E00E9422155A945110F8CFD8CF512C96
:1027C000B701802F90E00E942215D3CF06EC10E0D5
:1027D000D5CF91108052B70190E00E9422150F5F73
:1027E0001F4FCFCF23E0251510F483E0BDCF512C30
:1027F000C0CF6096E2E10C9419142F923F924F9251
:102800005F926F927F928F929F92AF92BF92CF9280
:10281000DF92EF92FF920F931F93CF93DF93CDB789
:10282000DEB7CA1BDB0B0FB6F894DEBF0FBECDBF01
:1028300009942A88398848885F846E847D848C84D2
:102840009B84AA84B984C884DF80EE80FD800C81DB
:102850001B81AA81B981CE0FD11D0FB6F894DEBFBE
:102860000FBECDBFED010895283008F027E03327D3
:10287000DA01990F311D87FD9160009661057105A0
:1028800039F432602E5F3D9330E32A95E1F70895E5
:102890009F3F30F080387105610509F03C5F3C5F77
:1028A0003D93913008F08068911DDF93CF931F9383
:1028B0000F93FF92EF92192F987F9695E92F969597
:1028C0009695E90FFF27EC5DFE4F99273327EE24FD
:1028D000FF24A701E70105900894079428F4360F18
:1028E000E71EF81E491F511D660F771F881F991F8D
:1028F0000694A1F70590079428F4E70EF81E491FE7
:10290000561FC11D770F881F991F661F0694A1F7D8
:102910000590079428F4F80E491F561FC71FD11DB4
:10292000880F991F661F771F0694A1F705900794DB
:1029300020F4490F561FC71FD81F990F661F771F16
:10294000881F0694A9F784911095177041F0D695C9
:10295000C79557954795F794E7941A95C1F7EAEC10
:10296000F0E06894159015913591659195910590D9
:102970007FE27395E118F10A430B560BC90BD0099E
:10298000C0F7E10CF11E431F561FC91FD01D7EF476
:10299000703311F48A95E6CFE894015030F0080FB7
:1029A0000AF40027021708F4202F2395022F7A3308
:1029B00028F079E37D932A95E9F710C07D932A9555
:1029C00089F6069497956795379517951794E118AA
:1029D000F10A430B560BC90BD00998F023957E9151
:1029E00073957A3308F070E37C932013B8F77E91E7
:1029F00070617D9330F0839571E37D9370E32A9548
:102A0000E1F71124EF90FF900F911F91CF91DF918B
:102A1000992787FD90950895FC01059061507040BD
:102A20000110D8F7809590958E0F9F1F0895FC0197
:102A30006150704001900110D8F7809590958E0FED
:102A40009F1F08950F931F93CF93DF93FB01238163
:102A500021FD03C08FEF9FEF2CC022FF16C04681DF
:102A60005781248135814217530744F4A081B181F5
:102A70009D012F5F3F4F318320838C9326813781C7
:102A80002F5F3F4F3783268314C08B01EC01FB017E
:102A90000084F185E02D0995892BE1F6D801169681
:102AA0008D919C911797019617969C938E931697EC
:102AB000CE01DF91CF911F910F910895AEE0B0E06C
:102AC000E4E6F5E10C940B140D891E8986E08C83F5
:102AD0001A8309838FEF9FE79E838D83AE01475E44
:102AE0005F4F6F89788DCE0101960E948010EF8133
:102AF000F885E00FF11F10822E96E4E00C94271465
:102B0000FA01AA27283051F1203181F1E8946F931E
:102B10006E7F6E5F7F4F8F4F9F4FAF4FB1E03ED0C4
:102B2000B4E03CD0670F781F891F9A1FA11D680F62
:102B3000791F8A1F911DA11D6A0F711D811D911D95
:102B4000A11D20D009F468943F912AE0269F11240A
:102B50003019305D3193DEF6CF010895462F47706E
:102B6000405D4193B3E00FD0C9F7F6CF462F4F70C9
:102B7000405D4A3318F0495D31FD4052419302D027
:102B8000A9F7EACFB4E0A6959795879577956795CD
:102B9000BA95C9F700976105710508959B01AC01CD
:102BA0000A2E06945795479537952795BA95C9F7F4
:102BB000620F731F841F951FA01D0895F999FECF02
:102BC00092BD81BDF89A992780B50895262FF9996D
:102BD000FECF92BD81BDF89A019700B4021639F07C
:102BE0001FBA20BD0FB6F894FA9AF99A0FBE08954D
:042BF000F894FFCF87
:102BF4000100010004004D6F64653A2056284443E7
:102C040029004D4F44453A5628414329004D4F442D
:102C1400453A526573697374616E6365004D4F4440
:102C2400453A436F6E74696E75697479004D696EC7
:102C34003A004D61783A00560056524D5300202018
:102C44002020202020202020202020202020202080
:102C54002020004F50454E00252E336600252E338C
:0E2C6400670053484F525400252E3166000081
:00000001FF
